{
    "contractName": "DocumentHashStorage",
    "abi": [
        {
            "inputs": [],
            "stateMutability": "nonpayable",
            "type": "constructor"
        },
        {
            "inputs": [
                {
                    "internalType": "string",
                    "name": "uId",
                    "type": "string"
                }
            ],
            "name": "getDocumentHash",
            "outputs": [
                {
                    "internalType": "string",
                    "name": "",
                    "type": "string"
                }
            ],
            "stateMutability": "view",
            "type": "function"
        },
        {
            "inputs": [
                {
                    "internalType": "string",
                    "name": "uId",
                    "type": "string"
                },
                {
                    "internalType": "string",
                    "name": "documentHash",
                    "type": "string"
                }
            ],
            "name": "storeDocumentHash",
            "outputs": [],
            "stateMutability": "nonpayable",
            "type": "function"
        }
    ],
    "bytecode": "608060405234801561001057600080fd5b50600080546001600160a01b031916331790556105a8806100326000396000f3fe608060405234801561001057600080fd5b50600436106100365760003560e01c80633796525f1461003b578063bb6ccd9414610050575b600080fd5b61004e610049366004610316565b610079565b005b61006361005e36600461037a565b6101c3565b60405161007091906103db565b60405180910390f35b6000546001600160a01b031633146100e65760405162461bcd60e51b815260206004820152602560248201527f4f6e6c7920746865206f776e65722063616e2063616c6c20746869732066756e60448201526431ba34b7b760d91b60648201526084015b60405180910390fd5b60008251116101425760405162461bcd60e51b815260206004820152602260248201527f5472616e73616374696f6e20636f6465206d757374206e6f7420626520656d70604482015261747960f01b60648201526084016100dd565b60008151116101935760405162461bcd60e51b815260206004820152601f60248201527f446f63756d656e742068617368206d757374206e6f7420626520656d7074790060448201526064016100dd565b806001836040516101a4919061040e565b908152602001604051809103902090816101be91906104b2565b505050565b60606001826040516101d5919061040e565b908152602001604051809103902080546101ee9061042a565b80601f016020809104026020016040519081016040528092919081815260200182805461021a9061042a565b80156102675780601f1061023c57610100808354040283529160200191610267565b820191906000526020600020905b81548152906001019060200180831161024a57829003601f168201915b50505050509050919050565b634e487b7160e01b600052604160045260246000fd5b600082601f83011261029a57600080fd5b813567ffffffffffffffff808211156102b5576102b5610273565b604051601f8301601f19908116603f011681019082821181831017156102dd576102dd610273565b816040528381528660208588010111156102f657600080fd5b836020870160208301376000602085830101528094505050505092915050565b6000806040838503121561032957600080fd5b823567ffffffffffffffff8082111561034157600080fd5b61034d86838701610289565b9350602085013591508082111561036357600080fd5b5061037085828601610289565b9150509250929050565b60006020828403121561038c57600080fd5b813567ffffffffffffffff8111156103a357600080fd5b6103af84828501610289565b949350505050565b60005b838110156103d25781810151838201526020016103ba565b50506000910152565b60208152600082518060208401526103fa8160408501602087016103b7565b601f01601f19169190910160400192915050565b600082516104208184602087016103b7565b9190910192915050565b600181811c9082168061043e57607f821691505b60208210810361045e57634e487b7160e01b600052602260045260246000fd5b50919050565b601f8211156101be57600081815260208120601f850160051c8101602086101561048b5750805b601f850160051c820191505b818110156104aa57828155600101610497565b505050505050565b815167ffffffffffffffff8111156104cc576104cc610273565b6104e0816104da845461042a565b84610464565b602080601f83116001811461051557600084156104fd5750858301515b600019600386901b1c1916600185901b1785556104aa565b600085815260208120601f198616915b8281101561054457888601518255948401946001909101908401610525565b50858210156105625787850151600019600388901b60f8161c191681555b5050505050600190811b0190555056fea2646970667358221220dac9e7eab13f22d74b606df3d144e7bfa7d3f97e77eb7575da79c9379fe27a3b64736f6c63430008130033",
    "sourcePath": "/Users/bmwe/Documents/Training Courses/Web dev/Blockchain.nosync/document_storage/contracts/DocumentHashStorage.sol",
    "compiler": {
        "name": "solc",
        "version": "0.8.19+commit.7dd6d404"
    },
    "functionHashes": {
        "getDocumentHash(string)": "bb6ccd94",
        "storeDocumentHash(string,string)": "3796525f"
    },
    "gasEstimates": {
        "creation": {
            "codeDepositCost": "289600",
            "executionCost": "24566",
            "totalCost": "314166"
        },
        "external": {
            "getDocumentHash(string)": "infinite",
            "storeDocumentHash(string,string)": "infinite"
        }
    }
}