{
    "contractName": "DocumentHashStorage",
    "abi": [
        {
            "inputs": [
                {
                    "internalType": "string",
                    "name": "uId",
                    "type": "string"
                }
            ],
            "name": "getBookHash",
            "outputs": [
                {
                    "internalType": "string",
                    "name": "",
                    "type": "string"
                }
            ],
            "stateMutability": "view",
            "type": "function"
        },
        {
            "inputs": [
                {
                    "internalType": "string",
                    "name": "uId",
                    "type": "string"
                },
                {
                    "internalType": "string",
                    "name": "documentHash",
                    "type": "string"
                }
            ],
            "name": "storeBookHash",
            "outputs": [],
            "stateMutability": "nonpayable",
            "type": "function"
        }
    ],
    "bytecode": "608060405234801561001057600080fd5b50610540806100206000396000f3fe608060405234801561001057600080fd5b50600436106100365760003560e01c8063521e967b1461003b578063a1174bac14610064575b600080fd5b61004e6100493660046102ae565b610079565b60405161005b919061030f565b60405180910390f35b610077610072366004610342565b610129565b005b606060008260405161008b91906103a6565b908152602001604051809103902080546100a4906103c2565b80601f01602080910402602001604051908101604052809291908181526020018280546100d0906103c2565b801561011d5780601f106100f25761010080835404028352916020019161011d565b820191906000526020600020905b81548152906001019060200180831161010057829003601f168201915b50505050509050919050565b600082511161018a5760405162461bcd60e51b815260206004820152602260248201527f5472616e73616374696f6e20636f6465206d757374206e6f7420626520656d70604482015261747960f01b60648201526084015b60405180910390fd5b60008151116101db5760405162461bcd60e51b815260206004820152601b60248201527f426f6f6b2068617368206d757374206e6f7420626520656d70747900000000006044820152606401610181565b806000836040516101ec91906103a6565b90815260200160405180910390209081610206919061044a565b505050565b634e487b7160e01b600052604160045260246000fd5b600082601f83011261023257600080fd5b813567ffffffffffffffff8082111561024d5761024d61020b565b604051601f8301601f19908116603f011681019082821181831017156102755761027561020b565b8160405283815286602085880101111561028e57600080fd5b836020870160208301376000602085830101528094505050505092915050565b6000602082840312156102c057600080fd5b813567ffffffffffffffff8111156102d757600080fd5b6102e384828501610221565b949350505050565b60005b838110156103065781810151838201526020016102ee565b50506000910152565b602081526000825180602084015261032e8160408501602087016102eb565b601f01601f19169190910160400192915050565b6000806040838503121561035557600080fd5b823567ffffffffffffffff8082111561036d57600080fd5b61037986838701610221565b9350602085013591508082111561038f57600080fd5b5061039c85828601610221565b9150509250929050565b600082516103b88184602087016102eb565b9190910192915050565b600181811c908216806103d657607f821691505b6020821081036103f657634e487b7160e01b600052602260045260246000fd5b50919050565b601f82111561020657600081815260208120601f850160051c810160208610156104235750805b601f850160051c820191505b818110156104425782815560010161042f565b505050505050565b815167ffffffffffffffff8111156104645761046461020b565b6104788161047284546103c2565b846103fc565b602080601f8311600181146104ad57600084156104955750858301515b600019600386901b1c1916600185901b178555610442565b600085815260208120601f198616915b828110156104dc578886015182559484019460019091019084016104bd565b50858210156104fa5787850151600019600388901b60f8161c191681555b5050505050600190811b0190555056fea2646970667358221220eb92d5d686cedbd7f108f439dd8a1adfc4544c8361e29747a27dc9dc87ce771d64736f6c63430008130033",
    "sourcePath": "/Users/bmwe/Documents/Training Courses/Web dev/Blockchain/document_storage/contracts/DocumentHashStorage.sol",
    "compiler": {
        "name": "solc",
        "version": "0.8.19+commit.7dd6d404"
    },
    "functionHashes": {
        "getBookHash(string)": "521e967b",
        "storeBookHash(string,string)": "a1174bac"
    },
    "gasEstimates": {
        "creation": {
            "codeDepositCost": "268800",
            "executionCost": "306",
            "totalCost": "269106"
        },
        "external": {
            "getBookHash(string)": "infinite",
            "storeBookHash(string,string)": "infinite"
        }
    }
}