{
    "contractName": "DocumentHashStorage",
    "abi": [
        {
            "inputs": [
                {
                    "internalType": "string",
                    "name": "uId",
                    "type": "string"
                }
            ],
            "name": "getDocumentHash",
            "outputs": [
                {
                    "internalType": "string",
                    "name": "",
                    "type": "string"
                }
            ],
            "stateMutability": "view",
            "type": "function"
        },
        {
            "inputs": [
                {
                    "internalType": "string",
                    "name": "uId",
                    "type": "string"
                },
                {
                    "internalType": "string",
                    "name": "documentHash",
                    "type": "string"
                }
            ],
            "name": "storeDocumentHash",
            "outputs": [],
            "stateMutability": "nonpayable",
            "type": "function"
        }
    ],
    "bytecode": "608060405234801561001057600080fd5b50610540806100206000396000f3fe608060405234801561001057600080fd5b50600436106100365760003560e01c80633796525f1461003b578063bb6ccd9414610050575b600080fd5b61004e6100493660046102ae565b610079565b005b61006361005e366004610312565b61015b565b6040516100709190610373565b60405180910390f35b60008251116100da5760405162461bcd60e51b815260206004820152602260248201527f5472616e73616374696f6e20636f6465206d757374206e6f7420626520656d70604482015261747960f01b60648201526084015b60405180910390fd5b600081511161012b5760405162461bcd60e51b815260206004820152601f60248201527f446f63756d656e742068617368206d757374206e6f7420626520656d7074790060448201526064016100d1565b8060008360405161013c91906103a6565b90815260200160405180910390209081610156919061044a565b505050565b606060008260405161016d91906103a6565b90815260200160405180910390208054610186906103c2565b80601f01602080910402602001604051908101604052809291908181526020018280546101b2906103c2565b80156101ff5780601f106101d4576101008083540402835291602001916101ff565b820191906000526020600020905b8154815290600101906020018083116101e257829003601f168201915b50505050509050919050565b634e487b7160e01b600052604160045260246000fd5b600082601f83011261023257600080fd5b813567ffffffffffffffff8082111561024d5761024d61020b565b604051601f8301601f19908116603f011681019082821181831017156102755761027561020b565b8160405283815286602085880101111561028e57600080fd5b836020870160208301376000602085830101528094505050505092915050565b600080604083850312156102c157600080fd5b823567ffffffffffffffff808211156102d957600080fd5b6102e586838701610221565b935060208501359150808211156102fb57600080fd5b5061030885828601610221565b9150509250929050565b60006020828403121561032457600080fd5b813567ffffffffffffffff81111561033b57600080fd5b61034784828501610221565b949350505050565b60005b8381101561036a578181015183820152602001610352565b50506000910152565b602081526000825180602084015261039281604085016020870161034f565b601f01601f19169190910160400192915050565b600082516103b881846020870161034f565b9190910192915050565b600181811c908216806103d657607f821691505b6020821081036103f657634e487b7160e01b600052602260045260246000fd5b50919050565b601f82111561015657600081815260208120601f850160051c810160208610156104235750805b601f850160051c820191505b818110156104425782815560010161042f565b505050505050565b815167ffffffffffffffff8111156104645761046461020b565b6104788161047284546103c2565b846103fc565b602080601f8311600181146104ad57600084156104955750858301515b600019600386901b1c1916600185901b178555610442565b600085815260208120601f198616915b828110156104dc578886015182559484019460019091019084016104bd565b50858210156104fa5787850151600019600388901b60f8161c191681555b5050505050600190811b0190555056fea2646970667358221220da67f0249b259129a0845da1d2516a0f7e8f50324f9c3f41da5a03c642a7ffd864736f6c63430008130033",
    "sourcePath": "/Users/bmwe/Documents/Training Courses/Web dev/Blockchain.nosync/document_storage/contracts/DocumentHashStorage.sol",
    "compiler": {
        "name": "solc",
        "version": "0.8.19+commit.7dd6d404"
    },
    "functionHashes": {
        "getDocumentHash(string)": "bb6ccd94",
        "storeDocumentHash(string,string)": "3796525f"
    },
    "gasEstimates": {
        "creation": {
            "codeDepositCost": "268800",
            "executionCost": "306",
            "totalCost": "269106"
        },
        "external": {
            "getDocumentHash(string)": "infinite",
            "storeDocumentHash(string,string)": "infinite"
        }
    }
}