{
  "contractName": "DocumentHashStorage",
  "abi": [
    {
      "inputs": [
        {
          "internalType": "string",
          "name": "uId",
          "type": "string"
        },
        {
          "internalType": "string",
          "name": "documentHash",
          "type": "string"
        }
      ],
      "name": "storeBookHash",
      "outputs": [],
      "stateMutability": "nonpayable",
      "type": "function"
    },
    {
      "inputs": [
        {
          "internalType": "string",
          "name": "uId",
          "type": "string"
        }
      ],
      "name": "getBookHash",
      "outputs": [
        {
          "internalType": "string",
          "name": "",
          "type": "string"
        }
      ],
      "stateMutability": "view",
      "type": "function",
      "constant": true
    }
  ],
  "bytecode": "0x608060405234801561001057600080fd5b5061091a806100206000396000f3fe608060405234801561001057600080fd5b50600436106100365760003560e01c8063521e967b1461003b578063a1174bac1461006b575b600080fd5b61005560048036038101906100509190610349565b610087565b6040516100629190610411565b60405180910390f35b61008560048036038101906100809190610433565b610137565b005b606060008260405161009991906104e7565b908152602001604051809103902080546100b29061052d565b80601f01602080910402602001604051908101604052809291908181526020018280546100de9061052d565b801561012b5780601f106101005761010080835404028352916020019161012b565b820191906000526020600020905b81548152906001019060200180831161010e57829003601f168201915b50505050509050919050565b600082511161017b576040517f08c379a0000000000000000000000000000000000000000000000000000000008152600401610172906105d0565b60405180910390fd5b60008151116101bf576040517f08c379a00000000000000000000000000000000000000000000000000000000081526004016101b69061063c565b60405180910390fd5b806000836040516101d091906104e7565b908152602001604051809103902090816101ea9190610812565b505050565b6000604051905090565b600080fd5b600080fd5b600080fd5b600080fd5b6000601f19601f8301169050919050565b7f4e487b7100000000000000000000000000000000000000000000000000000000600052604160045260246000fd5b6102568261020d565b810181811067ffffffffffffffff821117156102755761027461021e565b5b80604052505050565b60006102886101ef565b9050610294828261024d565b919050565b600067ffffffffffffffff8211156102b4576102b361021e565b5b6102bd8261020d565b9050602081019050919050565b82818337600083830152505050565b60006102ec6102e784610299565b61027e565b90508281526020810184848401111561030857610307610208565b5b6103138482856102ca565b509392505050565b600082601f8301126103305761032f610203565b5b81356103408482602086016102d9565b91505092915050565b60006020828403121561035f5761035e6101f9565b5b600082013567ffffffffffffffff81111561037d5761037c6101fe565b5b6103898482850161031b565b91505092915050565b600081519050919050565b600082825260208201905092915050565b60005b838110156103cc5780820151818401526020810190506103b1565b60008484015250505050565b60006103e382610392565b6103ed818561039d565b93506103fd8185602086016103ae565b6104068161020d565b840191505092915050565b6000602082019050818103600083015261042b81846103d8565b905092915050565b6000806040838503121561044a576104496101f9565b5b600083013567ffffffffffffffff811115610468576104676101fe565b5b6104748582860161031b565b925050602083013567ffffffffffffffff811115610495576104946101fe565b5b6104a18582860161031b565b9150509250929050565b600081905092915050565b60006104c182610392565b6104cb81856104ab565b93506104db8185602086016103ae565b80840191505092915050565b60006104f382846104b6565b915081905092915050565b7f4e487b7100000000000000000000000000000000000000000000000000000000600052602260045260246000fd5b6000600282049050600182168061054557607f821691505b602082108103610558576105576104fe565b5b50919050565b7f5472616e73616374696f6e20636f6465206d757374206e6f7420626520656d7060008201527f7479000000000000000000000000000000000000000000000000000000000000602082015250565b60006105ba60228361039d565b91506105c58261055e565b604082019050919050565b600060208201905081810360008301526105e9816105ad565b9050919050565b7f426f6f6b2068617368206d757374206e6f7420626520656d7074790000000000600082015250565b6000610626601b8361039d565b9150610631826105f0565b602082019050919050565b6000602082019050818103600083015261065581610619565b9050919050565b60008190508160005260206000209050919050565b60006020601f8301049050919050565b600082821b905092915050565b6000600883026106be7fffffffffffffffffffffffffffffffffffffffffffffffffffffffffffffffff82610681565b6106c88683610681565b95508019841693508086168417925050509392505050565b6000819050919050565b6000819050919050565b600061070f61070a610705846106e0565b6106ea565b6106e0565b9050919050565b6000819050919050565b610729836106f4565b61073d61073582610716565b84845461068e565b825550505050565b600090565b610752610745565b61075d818484610720565b505050565b5b818110156107815761077660008261074a565b600181019050610763565b5050565b601f8211156107c6576107978161065c565b6107a084610671565b810160208510156107af578190505b6107c36107bb85610671565b830182610762565b50505b505050565b600082821c905092915050565b60006107e9600019846008026107cb565b1980831691505092915050565b600061080283836107d8565b9150826002028217905092915050565b61081b82610392565b67ffffffffffffffff8111156108345761083361021e565b5b61083e825461052d565b610849828285610785565b600060209050601f83116001811461087c576000841561086a578287015190505b61087485826107f6565b8655506108dc565b601f19841661088a8661065c565b60005b828110156108b25784890151825560018201915060208501945060208101905061088d565b868310156108cf57848901516108cb601f8916826107d8565b8355505b6001600288020188555050505b50505050505056fea2646970667358221220ef24af68222aadd36cc59566e9b9a4d0ca3f10cbf43f81dac4e9a151246d80e464736f6c63430008130033",
  "immutableReferences": {},
  "source": "// SPDX-License-Identifier: MIT \npragma solidity ^0.8.0;\n\ncontract DocumentHashStorage {\n  mapping(string => string) private documentHashes;\n\n  function storeBookHash(string memory uId, string memory documentHash) external {\n    require(bytes(uId).length > 0, \"Transaction code must not be empty\");\n    require(bytes(documentHash).length > 0, \"Book hash must not be empty\");\n    documentHashes[uId] = documentHash;\n  }\n  \n  function getBookHash(string memory uId) external view returns (string memory) {\n    return documentHashes[uId];\n  }\n}",
  "sourcePath": "/Users/bmwe/Documents/Training Courses/Web dev/Blockchain/document_storage/contracts/DocumentHashStorage.sol",
  "compiler": {
    "name": "solc",
    "version": "0.8.19+commit.7dd6d404.Emscripten.clang"
  },
  "schemaVersion": "3.4.16",
  "updatedAt": "2023-12-05T18:10:55.075Z",
  "networkType": "ethereum",
  "devdoc": {
    "kind": "dev",
    "methods": {},
    "version": 1
  },
  "userdoc": {
    "kind": "user",
    "methods": {},
    "version": 1
  }
}